:020000040800F2
:10000000000002205909000855090008CD4F0008DA
:1000100055090008550900085509000800000000AE
:10002000000000000000000000000000550900086A
:10003000550900080000000055090008514F00084C
:100040005509000855090008550900085509000818
:100050005509000855090008550900085509000808
:10006000550900085509000855090008594B0008B2
:10007000654B00086D380008714B00087D4B000887
:10008000EDF5000839400008550900085509000839
:1000900055090008550900085509000855090008C8
:1000A00055090008550900085509000855090008B8
:1000B00019EA000825EA000831EA00086D40000846
:1000C00055090008794000085509000889E2000830
:1000D00095E2000821F400084DF4000881F40008BE
:1000E00055090008550900080000000055090008DE
:1000F0005509000855090008550900085509000868
:1001000055090008550900083DEA0008A1E2000869
:10011000B5F40008E9F4000855090008550900087D
:100120005509000855090008C5E20008F9E2000871
:1001300021F600085509000855090008550900086E
:1001400000000000000000000000000000000000AF
:100150005509000855090008550900081DF5000853
:100160008540000855090008614F0008854F0008C8
:1001700055090008A94F000855090008550900084D
:10018000550900085509000851F5000885F50008D3
:10019000ADE20008B9E20008550900085509000859
:1001A00055090008550900085509000855090008B7
:1001B0007948000855090008550900085509000844
:1001C0005509000855090008550900085509000897
:1001D0005509000855090008550900085509000887
:1001E0005509000855090008550900085509000877
:1001F0005509000855090008550900085509000867
:100200005509000855090008550900085509000856
:100210005509000855090008550900085509000846
:10022000550900085509000855090008000000009C
:10023000550900085509000800000000550900088C
:100240005509000855090008550900085509000816
:100250005509000855090008550900085509000806
:1002600055090008550900085509000855090008F6
:100270005509000855090008B9F5000800000000FC
:10028000550900085509000855090008000000003C
:08029000000000005509000800
:1002980010B5054C237833B9044B13B10448AFF3B8
:1002A80000800123237010BDE80300240000000033
:1002B800C032010808B5034B1BB103490348AFF32B
:1002C800008008BD00000000EC030024C0320108D3
:1002D80081F0004102E000BF83F0004330B54FEAEF
:1002E80041044FEA430594EA050F08BF90EA020F5C
:1002F8001FBF54EA000C55EA020C7FEA645C7FEAEF
:10030800655C00F0E2804FEA5454D4EB5555B8BF11
:100318006D420CDD2C4480EA020281EA030382EA82
:10032800000083EA010180EA020281EA0303362D14
:1003380088BF30BD11F0004F4FEA01314FF4801CE7
:100348004CEA113102D0404261EB410113F0004FF9
:100358004FEA03334CEA133302D0524263EB4303B0
:1003680094EA050F00F0A780A4F10104D5F1200E4E
:100378000DDB02FA0EFC22FA05F2801841F10001A9
:1003880003FA0EF2801843FA05F359410EE0A5F17D
:1003980020050EF1200E012A03FA0EFC28BF4CF0AE
:1003A800020C43FA05F3C01851EBE37101F0004564
:1003B80007D54FF0000EDCF1000C7EEB00006EEB71
:1003C8000101B1F5801F1BD3B1F5001F0CD34908FB
:1003D8005FEA30004FEA3C0C04F101044FEA445252
:1003E80012F5800F80F09A80BCF1004F08BF5FEAD9
:1003F800500C50F1000041EB045141EA050130BDB9
:100408005FEA4C0C404141EB0101013C28BFB1F5CA
:10041800801FE9D291F0000F04BF01460020B1FA15
:1004280081F308BF2033A3F10B03B3F120020CDAE8
:100438000C3208DD02F1140CC2F10C0201FA0CF0C6
:1004480021FA02F10CE002F11402D8BFC2F1200C2B
:1004580001FA02F120FA0CFCDCBF41EA0C019040E1
:10046800E41AA2BF01EB0451294330BD6FEA04042A
:100478001F3C1CDA0C340EDC04F11404C4F1200215
:1004880020FA04F001FA02F340EA030021FA04F327
:1004980045EA030130BDC4F10C04C4F1200220FA7E
:1004A80002F001FA04F340EA0300294630BD21FABC
:1004B80004F0294630BD94F0000F83F4801306BF82
:1004C80081F480110134013D4EE77FEA645C18BF76
:1004D8007FEA655C29D094EA050F08BF90EA020F0D
:1004E80005D054EA000C04BF1946104630BD91EA05
:1004F800030F1EBF0021002030BD5FEA545C05D108
:100508004000494128BF41F0004130BD14F5800446
:100518003CBF01F5801130BD01F0004545F0FE41BA
:1005280041F470014FF0000030BD7FEA645C1ABFEF
:10053800194610467FEA655C1CBF0B46024650EA26
:10054800013406BF52EA033591EA030F41F4002152
:1005580030BD00BF90F0000F04BF0021704730B5D8
:100568004FF4806404F132044FF000054FF00001AD
:1005780050E700BF90F0000F04BF0021704730B56E
:100588004FF4806404F1320410F0004548BF404243
:100598004FF000013EE700BF42004FEAE2014FEA98
:1005A80031014FEA02701FBF12F07F4393F07F4F73
:1005B80081F06051704732F07F4208BF704793F076
:1005C8007F4F04BF41F40021704730B54FF4607489
:1005D80001F0004521F000411CE700BF50EA01028C
:1005E80008BF704730B54FF000050AE050EA010235
:1005F80008BF704730B511F0004502D5404261EBA5
:1006080041014FF4806404F132045FEA915C3FF4E5
:10061800D8AE4FF003025FEADC0C18BF03325FEA82
:10062800DC0C18BF033202EBDC02C2F1200300FA33
:1006380003FC20FA02F001FA03FE40EA0E0021FA58
:1006480002F11444BDE600BF53B94AB9002908BFF6
:1006580000281CBF4FF0FF314FF0FF3000F074B995
:10066800ADF1080C6DE904CE00F006F8DDF804E001
:10067800DDE9022304B070472DE9F047089D0446E0
:100688008E46002B4DD18A42944669D9B2FA82F23D
:1006980052B101FA02F3C2F1200120FA01F10CFA79
:1006A80002FC41EA030E94404FEA1C48210CBEFBB1
:1006B800F8F61FFA8CF708FB16E341EA034306FB3A
:1006C80007F199420AD91CEB030306F1FF3080F0C9
:1006D8001F81994240F21C81023E63445B1AA4B216
:1006E800B3FBF8F008FB103344EA034400FB07F7B8
:1006F800A7420AD91CEB040400F1FF3380F00A81F9
:10070800A74240F207816444023840EA0640E41BED
:1007180000261DB1D4400023C5E900433146BDE899
:10072800F0878B4209D9002D00F0EF800026C5E93B
:10073800000130463146BDE8F087B3FA83F6002E53
:100748004AD18B4202D3824200F2F980841A61EBCB
:10075800030301209E46002DE0D0C5E9004EDDE7E9
:1007680002B9FFDEB2FA82F2002A40F09280A1EBD1
:100778000C014FEA1C471FFA8CFE0126200CB1FB26
:10078800F7F307FB131140EA01410EFB03F088421F
:1007980008D91CEB010103F1FF3802D2884200F2AC
:1007A800CB804346091AA4B2B1FBF7F007FB10113E
:1007B80044EA01440EFB00FEA64508D91CEB0404DC
:1007C80000F1FF3102D2A64500F2BB800846A4EB37
:1007D8000E0440EA03409CE7C6F12007B34022FA22
:1007E80007FC4CEA030C20FA07F401FA06F31C4351
:1007F800F9404FEA1C4900FA06F3B1FBF9F8200C5E
:100808001FFA8CFE09FB181140EA014108FB0EF0A3
:10081800884202FA06F20BD91CEB010108F1FF3AF3
:1008280080F08880884240F28580A8F102086144FF
:10083800091AA4B2B1FBF9F009FB101144EA01410D
:1008480000FB0EFE8E4508D91CEB010100F1FF34B8
:100858006CD28E456AD90238614440EA0840A0FB50
:100868000294A1EB0E01A142C846A64656D353D026
:100878005DB1B3EB080261EB0E0101FA07F722FA4A
:1008880006F3F1401F43C5E9007100263146BDE873
:10089800F087C2F12003D8400CFA02FC21FA03F3D6
:1008A800914001434FEA1C471FFA8CFEB3FBF7F057
:1008B80007FB10360B0C43EA064300FB0EF69E427C
:1008C80004FA02F408D91CEB030300F1FF382FD215
:1008D8009E422DD9023863449B1B89B2B3FBF7F6BD
:1008E80007FB163341EA034106FB0EF38B4208D996
:1008F8001CEB010106F1FF3816D28B4214D9023ED7
:100908006144C91A46EA004638E72E46284605E7F4
:100918000646E3E61846F8E64B45A9D2B9EB0208C5
:1009280064EB0C0E0138A3E74646EAE7204694E755
:100938004046D1E7D0467BE7023B614432E7304688
:1009480009E76444023842E7704700BFFEE700BF8A
:100958000B480C4A904203D0121A0B4912F0C2FA03
:100968000A480B4A904203D0121A002112F0C8FA22
:1009780004F080FD12F092FA00F04EFCFEE700BF92
:1009880000000024E4030024F0320108E8030024F6
:100998007C340124704700BF704700BF704700BF18
:1009A800704700BF2DE9F04F2DED048B85B0CDE9E0
:1009B8000212002A00F0D982094F4FF00009094CB1
:1009C800A7F54052084D04F5805A07F5804807F509
:1009D800004607F5304B0092D1E90003ADE100BFB6
:1009E8003447002408040024BC060124B7F8603BFF
:1009F8005A1E05EE902AF8EEE55AF4EEE57AF1EE85
:100A080010FA80F2AC82FCEEE75A07F53763009AD9
:100A1800F4EEE47A93ED004ACDED015ABDF80430C6
:100A2800F1EE10FA05EE903A02EB830CB8EEE55AB7
:100A38009CED010ADCED005A35EE800A37EEC55A06
:100A480075EEC43A30EE040AA5EE630A03DB77EECE
:100A5800E47AC0ED007AB8F8DC3608F5DC6007EE19
:100A6800903A90ED005AF8EEE75AF4EEC55AF1EED6
:100A780010FA06DB75EEC55AFCEEE55A15EE903A0B
:100A88009BB208F5DB6CF7EE005A07F6743003F1F9
:100A9800010EDCED007A00EB8303A8F8DCE677EEC4
:100AA800A57A83ED006AF4EEE57ACCED007AF1EEF2
:100AB80010FA40F23B82B8F8D4365A1E06EE102AD5
:100AC800B8EEC66AF4EEC67AF1EE10FA80F2388211
:100AD800BCEEE76A08F2E463F4EEC57AD3ED004AA7
:100AE8008DED016ABDF804E0F1EE10FA06EE10EAA9
:100AF80000EB8E03F8EEC65AD3ED019A93ED006A27
:100B080076EE299A77EEE55A36EE644A79EEA49A9B
:100B1800E5EEC49A03DB77EEC57ACCED007AB6F839
:100B28005032D6ED955A07EE903AB8EEE76AB4EE31
:100B3800E56AF1EE10FA06DB36EE656ABCEEC66AC7
:100B480016EE103A9BB2B7EE006AD6ED937A08F526
:100B5800DD6003F1010C77EE867A00EB8303A6F8DB
:100B680050C2C3ED006AF4EEC67AC6ED937AF1EE90
:100B780010FA40F2E081B6F848325A1E06EE902A82
:100B8800F8EEE66AF4EEE67AF1EE10FA80F2E28127
:100B9800FCEEE76A96ED965AF4EEE57ACDED016A39
:100BA800BDF80430F1EE10FA06EE903A00EB830C33
:100BB800B8EEE66ADCED018ADCED006A76EEA88A1A
:100BC80037EEC66A76EEC54A78EE858AE6EE648A1E
:100BD80003DB77EEE57AC6ED937ABBF8C43D0BF6F6
:100BE800C85007EE903A90ED006AF8EEE76AF4EE26
:100BF800C66AF1EE10FA06DB76EEC66AFCEEE66A25
:100C080016EE903A9BB20BF55C60F7EE006A06EBC5
:100C1800830C0133D0ED007A8CED977A77EEA67AC3
:100C2800ABF8C43DF4EEE67AC0ED007AF1EE10FAC6
:100C380040F27981BBF8BC3D5A1E07EE102AB8EE87
:100C4800C77AF4EEC77AF1EE10FA80F27E81BCEE34
:100C5800E77A0BF6CC53F4EEC67AD3ED005A8DED55
:100C6800017ABDF80430F1EE10FA07EE103A06EBFF
:100C7800830CF8EEC76A9CED989A9CED977A37EE4C
:100C8800099A77EEE66A37EE655A39EE259AA6EEA6
:100C9800C59A03DB77EEC67AC0ED007A019111F0B0
:100CA80017FEB0EE408A09F10109B0EE690A11F0A9
:100CB8000FFEF0EE409AB0EE680A11F009FEF0EE71
:100CC800408AB0EE490A11F003FE78EE697A38EEF0
:100CD800C06AA84B38EE298A019978EE808AD3ED4C
:100CE800006A37EEC67AA44B77EE867AA34A38EEC6
:100CF800686A27EE267A38EE288A26EE266A83ED79
:100D0800007A67EEA67A9E4B28EE268A83ED006A63
:100D18009C4BC2ED007A83ED008A029BD3E9000365
:100D280000EB010C19448CED007AD2F800C0039A4C
:100D3800C1F800C04A4500F01881002103EB89037F
:100D480000EB8900016019608F4811F0FBFB8A4BAA
:100D5800D5ED057A4FEA8901D3ED005A884B70EE3C
:100D6800255A95ED026A93ED007A884B30EE070A12
:100D780095ED043AD3ED004A75EEC65A814B30EE34
:100D8800670A95ED0B7A93ED005AD5ED013AE3EE3B
:100D9800007A7F4BA3EEA56AD5ED086A75EE475A2F
:100DA800D5ED0A3A93ED005AB4F8B434A3EEA57A17
:100DB80095ED074A77EEE65A04EB830085ED026A63
:100DC8000133B4F800C0E4EE256AD0ED015A9BB2B5
:100DD800704AA5EEE46AC5ED057A9C4585ED0B7A67
:100DE80098BFA3EB0C03B4F8C8C4C5ED086AA4F80F
:100DF800B434E6EE055A684B80ED016A13ED015AEA
:100E0800D3ED004AB4F87C39C2ED005A634A02EBCC
:100E18008300013302F5976290ED006A9BB2E6EE1B
:100E2800647A9C4598BFA3EB0C03A4F87C395C4B0F
:100E3800A7EE856AC0ED007A93ED004AF0EE667A77
:100E480082ED006A53ED014A564AB4F8443EB4F8BC
:100E580090C902EB8300013302F5976290ED005AC6
:100E68009BB2E5EE447A9C45F0EE456A9AEDC74A96
:100E780098BFA3EB0C03B4F858CEA4F8443EBAF8D4
:100E88000C33E7EEA46AC0ED007AF0EE477ADAEDAB
:100E9800C64AC2ED006A444A02EB8300013390ED72
:100EA800005A9BB2E5EE447A9C45B0EE457A98BF6D
:100EB800A3EB0C03AAF80C33B7F8683BA7EEA47AA7
:100EC800C0ED007A07EE903A07F66C30B8EEE75AB4
:100ED800D0ED004AB4EEE45A8AEDC57AF1EE10FA84
:100EE80006DB35EE645ABCEEC55A15EE103A9BB2D5
:100EF80007F66430B7EE005A009AD0ED007A02EB9C
:100F0800830C013377EE857ACCED005AA7F8683B5D
:100F1800F4EEC57AC0ED007AF1EE10FA3FF666AD50
:100F280092ED010A97E596ED989AB7E607F67833B9
:100F3800D3ED009AF3E508F2EC63D3ED008A4CE6B2
:100F480000EB8303D3ED009AE9E506EB830393ED09
:100F5800979AA3E600EB8303D3ED008A3DE6009A57
:100F680002EB830393ED000A75E505B0BDEC048B35
:100F7800BDE8F08F0400002404040024281700248E
:100F88002C17002430170024EC060124CC08002478
:100F9800C8080024C4080024940D0024D4080024A0
:100FA8005C1200249C0D0024641200240000000040
:100FB80038B549484EF6C854484D2DED048B00F01D
:100FC80065FC454800F080FC0021434800F072FCB5
:100FD8000121B0EE408A404800F06CFC02213E48F6
:100FE800B0EE409A00F066FC03213B48F0EE408AE0
:100FF80000F060FCB7EEC87AF2EE046A9FED384A5A
:10100800DFED384A43F66C3020EE040ADFED363A5D
:10101800B0EE664ADFED352A354A47F2E0619FEDCA
:10102800352A10441144144402F53042324B9FEDE6
:10103800333A9FED336A85ED009A9FED255B37EED5
:10104800057BB3EE035AF2EE065AB7EEC77BA7EE5E
:10105800244AF0EE664A27EE055A67EE255AE7EE6F
:10106800234AF0EE663AE7EE226A80ED004A27EE60
:10107800066AE7EE023A27EE037AC1ED004A03F565
:101088001861C2ED956A1F4AC4ED003AC2ED018AA3
:10109800C2ED048AC2ED078AC2ED0A8A03F5976297
:1010A800194C82ED005A03F6486203F58053204636
:1010B800C1ED005A82ED006A83EDC47A84ED020A1C
:1010C80011F0FAFB84ED070ABDEC048B38BD00BFB4
:1010D8009A9999999999B93F040501240400002423
:1010E80000007A440060A5440060DE440050544586
:1010F8003417002400701545080400240000244219
:1011080000000442BC060124EC0601242DE9F0434A
:10111800002385B000F118064FF00A0804464FF086
:101128005E090D468DF80D30CDF80080012390F84A
:101138002C101746304603AA8DF80C9003F03AF8A5
:10114800CDF800800DF10B0294F8303094F82C1093
:10115800002818BF43F00103304684F830300123DB
:1011680003F050F894F83030002818BF43F001031A
:1011780084F83030A5F17303072B01D94D4517D1F9
:101188000A2303AA30468DF80C50009302238DF8E9
:101198000D7094F82C1003F00DF894F830300028F6
:1011A80018BF43F0010384F8303005B0BDE8F08380
:1011B800022303AACDF80080304694F82C1002F0E0
:1011C800F9FFCDF8008094F8303003AA94F82C1079
:1011D800002818BF43F0010330468DF80C5084F8FE
:1011E800303002238DF80D7002F0E4FFCDF8008056
:1011F800054694F8301003AA9DF80B303046002DB0
:1012080018BF41F001018DF80C908DF80D300223C4
:1012180084F83010BDE700BF2DE9F04F2DED028BAB
:101228008DB000274FF00108DFF814934FF05A0BE8
:1012380002AD3946BC4800F0EBFBCDF810908DF8B4
:1012480018B04FF0100ADFF8FCC24126B74C8DF8F1
:101258002CA0CDE902780FCDACE80F002B686046D2
:1012680007A900F81439CDE90779CDE9098702F013
:101278000BFF40F20C63A64684F810B0C4F808903F
:1012880004F11C0CA3828DF82CA00DF1080AC4E906
:101298000078BEE80F00CDE90779DEF800E0D14616
:1012A800AAE80F00C5F800E0B9E80F00ACE80F00A5
:1012B80007A98CF800E004F11800CDE9098702F0CD
:1012C800E3FE94F8303080216322B84218BF43F01F
:1012D8000103204684F83030FFF718FF404603F03A
:1012E800E3FE3A465E212046FFF710FF94F814A06B
:1012F80094F815900A254FF000085E27012307AAE5
:1013080094F82C1000958A488DF81D808DF81C7073
:1013180002F050FF94F83010012302AA00954045CE
:1013280018BF41F00101824884F8301094F82C105D
:1013380002F068FF94F83010022307AA404518BF4E
:1013480041F0010100957A4884F8301094F82C1087
:1013580002F030FF94F83010022307AA404518BF66
:1013680041F001010095724884F8301094F82C106F
:101378008DF81C608DF81DA002F01CFF94F830C099
:1013880002239DF80820404518BF4CF0010C94F842
:101398002C1000958DF81D2007AA654884F830C0E8
:1013A8008DF81C7002F006FF94F83010012307AA8C
:1013B8000095404518BF41F001015D488DF81D803A
:1013C80084F8301094F82C108DF81C7002F0F2FE9E
:1013D80094F83010012302AA0095404518BF41F047
:1013E8000101534884F8301094F82C1002F00AFFD9
:1013F80094F83010022307AA404518BF41F00101B4
:1014080000954B4884F8301094F82C1002F0D2FE66
:1014180094F830C0721C0223404518BF4CF0010CF0
:1014280094F82C10009502368DF81C2007AA404825
:10143800F6B284F830C08DF81D9002F0BBFE94F827
:10144800302002239DF80810009540450CBF154632
:1014580042F001058DF81D1007AA94F82C103448A5
:101468008DF81C7084F8305002F0A4FE94F83030E7
:10147800404518BF43F00103592E84F830307FF4FB
:1014880039AF01222B2129484FF49676FFF73EFE0B
:1014980001222C212548FFF739FE2D2123480E2251
:1014A800FFF734FE42462E212048FFF72FFE012287
:1014B8002F211E48FFF72AFE052230211B48FFF77F
:1014C80025FE312119480122FFF720FE424632212C
:1014D8001648FFF71BFE424633211448FFF716FE55
:1014E800424634211148FFF711FE424635210F4884
:1014F800FFF70CFE42465B210C48FFF707FE10225F
:101508005C210A48FFF702FE20225D210748FFF709
:10151800FDFD39468C220548FFF7F8FD054B0649C5
:10152800064A84F830800FE00405012418070124D6
:101538003007012408040024A0520024BC0601241A
:10154800010801097C0601244FF07C55002003F5B1
:10155800986C03F2C447A3F8B40407EE906ACCF879
:10156800005006F596763D60B8EEE77A1F8880460B
:1015780040F2DC504BF6803C07EE907A4FF00009C1
:1015880003F5976781ED007AF8EE677A01F56D51FA
:1015980086425560A2F800C003F59963C2F8089026
:1015A80001F1340102F10C02C7ED007ACCD1504BA5
:1015B80040F2011A4F4A50491A6003F599624F4F99
:1015C800116003F519624E4903F648339FED4D8AC1
:1015D800384611604C4AB0EE480ADFED4C8AC3F831
:1015E80010234B4B4B4ADFF864B11A604A4B4B4A05
:1015F8004B4E1A604B4B4C4A7D60C3F854224B4A01
:101608004B4BFD601A6087ED028AC7F81890C7ED4A
:10161800048AC7F814B011F04FF9052387ED070ABB
:101628009FED440A3846A7F828A03B7087ED020AC8
:1016380011F042F9304687ED070AB0EE480A7560A6
:10164800F560C6ED048AC6F814B0C6F8189086EDA1
:10165800028A11F031F986ED070A30469FED360A05
:10166800A6F828A086F8008086ED020A11F024F971
:101678001021324886ED070A00F0DCF803212F48D4
:1016880000F0ECF82E4D2D4800F0FCF82D492B48C1
:1016980000F0CEF80A264FF0000C02AA94F82C109D
:1016A8000123009628488DF808C002F083FD94F8BD
:1016B80030C007AA022394F82C10002818BF4CF059
:1016C800010C0096204884F830C002F09BFD94F885
:1016D8003020BDF81C30002818BF42F00102C3F3C7
:1016E8000B0384F830202B80FFF762FCD2E700BFA1
:1016F800C00800240000984100003041EC06012495
:10170800000004420000C8420000244200803B4719
:10171800A05200240060A544148E00240060DE441A
:101728009006012434C70024005054450070154524
:10173800FC0401240000DC42CDCC4C3D040501240E
:101748004C070124AD090008300701243EC3AE3719
:101758002DE9F041294800244FF00108284F5A2666
:10176800284A29494661294DC0E90044C0E9028751
:1017780011F0A8F8264840F20C63224A2549436133
:10178800C0F82080876047620661C662C0E90048E9
:10179800C0E9064411F096F81F481A4A1F49046028
:1017A80044610462C46311F08DF81D494FF49670CA
:1017B8001C4B144A0880A1F8C804A1F89009A1F8A4
:1017C800580E40F6D86103F54050A0F8601B03F5A9
:1017D800E040A0F8D41603F5304003F56043A0F8C4
:1017E8004812A3F8BC1D29460F4811F06BF829468A
:1017F800044A0E48BDE8F04111F064B878060124A7
:1018080001080109000000249D090008A509000835
:1018180018070124A909000804050124A1090008E2
:101828000804002434170024EC060124900601243F
:1018380000F062B9F8B5054600F07EF905F1E80454
:1018480005F1F80754F8046B284600F091F9304682
:1018580001F048FCBC42F5D1F8BD00BFF8B505461B
:1018680000F04EF905F1E80405F1F80754F8046BA7
:10187800284600F07DF9304601F034FCBC42F5D131
:10188800F8BD00BF183001F081BF00BF10B5044695
:10189800683001F003FC04F1880001F0FFFB04F15B
:1018A800A80001F0FBFB04F1C800BDE8104001F0FE
:1018B800F5BB00BF042928BF00213A3150F8213078
:1018C80093ED030A704700BF10B50446403001F09D
:1018D80065FC04F1F80001F009FD04F58470BDE829
:1018E800104001F003BD00BF10B5044686B01C20AF
:1018F80000F0ECF80346172004F59074ADF80C30AE
:1019080000F0E4F803461620ADF8103000F0DEF8D9
:101918000023ADF8140020460093059BDDE903126F
:1019280001F07AFC9FED071A2046F0EE410AB0EE6E
:10193800410A01F099FC204606B0BDE8104001F0CC
:10194800ADBC00BF000000002DE9F04198B005468D
:101958001020002400F0BAF8ADF80800022202991D
:1019680006A805F1180801F0EFFC112000F0AEF808
:10197800ADF80C00022203990DF12A0005F1680662
:1019880001F0E2FC122000F0A1F8ADF810000222EC
:1019980004990FA805F1EC0701F0D6FC132000F01C
:1019A80095F8ADF81400022205990DF14E0001F0EA
:1019B800CBFC042306A940461A4601F0D9FC05F1E0
:1019C800A80305F18802C5F8F03005F1C803C5E998
:1019D8003A62C5F8F430E1B2404601F0EDFE014646
:1019E80028460134019100F0C3F800233046DFEDAA
:1019F800070A01991A4601F01FFB042C02D057F878
:101A0800046BE8E718B0BDE8F08100BF6F12033B34
:101A1800F0B5044689B0019100F056F801992046C6
:101A280000F066F91B2000F051F8034604F1F807AE
:101A38009FED240AADF8183004F5847506993846E8
:101A480001F03AFC182000F041F803469FED1D0A0A
:101A58002846ADF81C30079901F02EFC1A20C4E97D
:101A6800467500F033F80346192004F1E805ADF88F
:101A78000C3000F02BF803460E20ADF8103000F0C3
:101A880025F8ADF8140004F140009FED0E0A059BFF
:101A9800DDE9031201F052FB2046FFF725FF20463F
:101AA800FFF752FF3021204600F046F855F8046B46
:101AB800204600F05DF8304601F014FBBD42F5D138
:101AC80009B0F0BD00000000704700BF202882B0B8
:101AD80009D8084B03EB400213F81030507843EA5A
:101AE800002002B0704701230C2043EA002002B016
:101AF800704700BF4C2F0108143001F069BA00BFCD
:101B080038B500F1140504462DED028B284601F086
:101B18001BFA284601F014FA2846B0EE408A01F074
:101B2800FDF9D0ED007AF8EE677A88EE277ABDECF9
:101B3800028B84ED0E7A38BD38B500F114050446E1
:101B48002DED028B284601F0EDF9284601F0F8F951
:101B58002846B0EE408A01F0E1F9D0ED007AF8EEBF
:101B6800677A88EE277ABDEC028B84ED0E7A38BD51
:101B780090ED0E0A704700BF10B540F203338EB0E7
:101B880000244FF60B7240F20341ADF8083009A863
:101B98000123ADF81020ADF824202246ADF80C1032
:101BA8000094029907940C94CDE90544CDE90A44C0
:101BB80001F004FF04A8012322460399009401F0D0
:101BC800FDFE09A801F0E0FF10B901200EB010BD1C
:101BD80004A801F0D9FFA0420CBF022020460EB095
:101BE80010BD00BF2DE9F04103239AB0012700245E
:101BF8000646CDE914373B4BCDE9104340F2045378
:101C0800CDE91647ADF84830FFF7B6FFB8420546AC
:101C180025D0022845D040F60132334B0DF12C086F
:101C28001894ADF82C200B981997CDF84A3000F08D
:101C3800E3F810A906F13C0003F016F8302003225F
:101C48004FF07E5341460D930E93CDE90B02F26B94
:101C580006F1140001F02AF91AB0BDE8F08110234A
:101C6800214A06A906908DF828300DF12C081F4B43
:101C7800CDF84A2007930294CDE91804CDE9080469
:101C880002A802F001FA0823029A03A94046ADF817
:101C98000C508DF80E40049505930B9400F0ECF869
:101CA800C7E700200121104B0DF12C083A4600949B
:101CB800CDF84A304FF60B730C94ADF82C30234610
:101CC800CDE9180140F601314046ADF818100699E3
:101CD800CDE90D4401F072FE2146404601F060FF57
:101CE800A7E700BF04020404040604030704010B69
:101CF8002DE9F04704462DED028B82B000294DD026
:101D0800012140F2011200230091ADF804208DF862
:101D18000630364A0127364B04F10409354904F1E7
:101D28002908626040F20272A36040F60663E1602F
:101D380004F1250AA4F82520A4F82930278284F87C
:101D4800277084F82B7003F04BFB054603F0AEF9BF
:101D58006946064650BB4DB304F130008DF8067055
:101D680003F0C6FA072D3CD104F114052046FFF70D
:101D780039FF284601F0E4F82846B0EE408A01F021
:101D8800CDF8D0ED007AF8EE677A88EE277A84ED00
:101D98000E7A02B0BDEC028BBDE8F08740F2011369
:101DA80000918DF80610ADF80430B2E704F1300068
:101DB80003F09EFA072D11D04946204602F0D4FBC5
:101DC8000EB9002DD0D1504601F0F4FE404601F086
:101DD800F1FE04F1120000F079F9C5E7002EF2D106
:101DE800C2E74946204602F0BFFBBDE705080509E2
:101DF80005070506050A060610B584B00346012442
:101E0800ADF8040003A8ADF80C30ADF80E4001F0B1
:101E1800D1FE214603A801F0B7FF204603F044F99C
:101E2800002103A801F0B0FF204603F03DF9214648
:101E380003A801F0A9FF04B010BD00BF10B5C2F39C
:101E4800002384B00C46017C8DF80D2043EA44023F
:101E5800FA2402238DF80C2003AA009402F0AAF9B0
:101E680018B10124204604B010BD04460A2003F02E
:101E78001BF9204604B010BD034670B543F8042B87
:101E8800044684B007C983E80700A37983B91A21F7
:101E98000B461E22FA2523742046ADF80C20022397
:101EA80003AA009502F086F928B1012004B070BD9C
:101EB8001B210B46EDE70A2003F0F6F84FF4B85261
:101EC80000950223ADF80C20204603AA217C02F0DD
:101ED80071F90028E9D10A2003F0E6F841F202720C
:101EE80000950223ADF80C20204603AA217C02F0BD
:101EF80061F90028D9D10A2003F0D6F80422009508
:101F08000223ADF80C20204603AA217C02F052F9E6
:101F18000028CAD10A2003F0C7F806220095022338
:101F2800ADF80C20204603AA217C02F043F90028D2
:101F3800BBD10A2003F0B8F841F208220095022329
:101F4800ADF80C20204603AA217C02F033F90028C2
:101F5800ABD10A20064603F0A7F80095022303AA8E
:101F6800217C2046ADF80C6002F024F900289CD1B1
:101F7800304603F099F8009522790C232046002A70
:101F88008DF80C3003AA4FF0020314BF62214221DE
:101F98008DF80D10217C02F00DF9002885D130460E
:101FA80003F082F82279D4E902310B43DBB20AB993
:101FB80043F0400362790AB143F020030E22FA2568
:101FC8008DF80D302046009502238DF80C2003AAC9
:101FD800217C02F0EFF800287FF467AF0A2003F0B5
:101FE80063F8102200950223ADF80C20204603AABE
:101FF800217C02F0DFF800287FF457AF0A2003F0B5
:1020080053F8122100950223ADF80C1003AA217C85
:10201800204602F0CFF800287FF447AF0A2003F0EB
:1020280043F8012209212046FFF708FF003818BFAE
:1020380001203BE7F0B5102387B0234C012200258F
:102048000126002702A920460195CDE902234FF475
:102058008052CDE904670AF0A3F9642003F066FC16
:1020680002A94FF480522046CDE9046702261027C2
:10207800CDE902670AF094F90322102302A9204649
:10208800CDE9022300230422CDE904234FF4805232
:102098000AF086F940F23223042202A901931023A0
:1020A8002046CDE90223019A012305924FF480527C
:1020B80004930AF075F940F6060120460AF090F9F3
:1020C800284607B0F0BD00BF580701241C4B00226A
:1020D8001C494FF0400C30B5054689B002205960C4
:1020E80007219A601A620124DA620A224FF4006E0C
:1020F800DC6006922022CDE9000104200821CDE908
:10210800020103201021CDE9040108206946C3E932
:1021180004024FF4C072181DC3E906C24FF480527E
:10212800C3E909E20AF012F938B92846FFF782FF35
:10213800003818BF012009B030BD204609B030BDB5
:102148005407012440410052614A0021D0B5136868
:102158008EB00A91002B40F0B9805E4B01214FF6FA
:1021680083700C2411600221D3F8D42000260327A1
:1021780042F48052C3F8D420D3F8D42002F4805219
:102188000092009AD3F8E02042F01002C3F8E02051
:10219800D3F8E02002F010020192019AD3F8E0206F
:1021A80042F04002C3F8E020D3F8E02002F04002F9
:1021B8000292029AD3F8E02042F00802C3F8E02025
:1021C800D3F8E02002F008020392039AD3F8E02043
:1021D80042F48072C3F8E020D3F8E02002F4807261
:1021E8000492049AD3F8E02042F08002C3F8E02079
:1021F800D3F8E02002F080020592059AD3F8E02097
:1022080042F02002C3F8E020D3F8E02002F02002D8
:102218000692069AD3F8E02042F00402C3F8E020C0
:10222800D3F8E0300C9403F0040307930323079AD0
:102238000B93CDE9080108A9274805F0FDF948F2F4
:102248003712022308A925480C94CDE90823CDE9C3
:102258000A6705F0F1F94CF20372022308A9204835
:102268000C94CDE90823CDE90A6705F0E5F940F2B9
:10227800FF62022308A91B480C94CDE90823CDE985
:102288000A6705F0D9F94FF60C72022308A9164817
:102298000C94CDE90823CDE90A6705F0CDF94FF68E
:1022A8003F02022308A911480C94CDE90823CDE97F
:1022B8000A6705F0C1F92022022308A90A480C94EC
:1022C800CDE90A67CDE9082305F0B6F90EB0D0BD0F
:1022D8005007012400440258001002580018025800
:1022E800000C025800200258001C02580014025822
:1022F8002DE9F04FDFF8108406460D46144608F124
:1023080018002DED028B89B000AF02F0A5FDD8F8BA
:10231800183073B3D8F81C30D8F80490002B4369F0
:102328000BBF4FF0080A4FF0100A4FF0020B4FF0A6
:10233800040BB9F1000F2AD0A200EA46012B02F1E2
:10234800070222F00702ADEB020D6846ADEB020D65
:10235800694600F03F81022B00F0D680002B6FD039
:102368002246C847D5462437BD46BDEC028BBDE89A
:10237800F08FD8F81C30002BF5D0D8F804904FF027
:10238800080A4FF0020B4369B9F1000FD4D1FB6181
:10239800D8F80030BB61002BE5D0D54802F0CEFD5F
:1023A8006B46BBF1020F786108EE103AFB6900F04A
:1023B80083816A465146A2EBC40295466200EA460A
:1023C800B2FBFBF2AAEBC40085460AEB8200EE469C
:1023D800F861ADEB010DF8690EEB820CC7F810C07F
:1023E800EC46ADEB010D00EB8201CCF80400CCF813
:1023F800081001EB82013869E946CCF80C1000EBB3
:102408008201CCF800A001EB8202C9E900E0C9E929
:102418000212012B00F06483022B00F06C82002B67
:1024280000F08081620849466046BB69984718EE0B
:10243800103A24379D46BD46BDEC028BBDE8F08FAF
:10244800002C8DD01A46D8ED0C6A9FEDB27A8446DE
:10245800331D36F922E00CF1080C07EE90EA33F947
:1024680022E00232F8EEE77A944267EE877A67EE66
:10247800A67A4CED027A07EE90EAF8EEE77A67EE74
:10248800877A67EEA67A4CED017AE2D8F96122469E
:10249800C847984ED8ED0D6A0020F9692B1D9FEDAD
:1024A8009E7A9FED9E6ADFED9E5A22E0F4EEC67A90
:1024B800F1EE10FAC0F2C88447F6FE72D1ED017A47
:1024C80045F8202066EEA77AF4EEC77AF1EE10FA06
:1024D80040F2F080F4EEC67AF1EE10FAC0F2D5843C
:1024E80047F6FE7243F820200230083184427FF616
:1024F80039AFD1ED007A66EEA77AF4EEC77AF1EE3D
:1025080010FAD3D83246D9E7002C3FF429AFD8EDDA
:102518000C6A84469FED787A0022331D8E4656F861
:1025280022100CF1080C07EE901A53F82210023210
:10253800F8EEE77A944267EE877A67EEA67A4CED72
:10254800027A07EE901AF8EEE77A67EE877A67EE76
:10255800A67A4CED017AE2D871462246C7F81CE00B
:10256800C847664ED8ED0D6A0020F9692B1D9FED0E
:102578006A7A9FED6A6ADFF894C120E0F4EEC67AC1
:10258800F1EE10FAC0F279843246D1ED017A45F8BD
:10259800202066EEA77AF4EEC77AF1EE10FA40F240
:1025A8008780F4EEC67AF1EE10FAC0F25E84324605
:1025B80043F820200230083184427FF6D3AED1EDB3
:1025C800007A66EEA77AF4EEC77AF1EE10FAD5D85B
:1025D8006246DAE7002C3FF4C3AED8ED0C6A8646B3
:1025E8009FED477A4FF0000C331D56F82C200EF162
:1025F800080E82F40002A2F5000207EE902A53F8B2
:102608002C200CF1020CF8EEE77A82F40002644503
:10261800A2F5000267EE877A67EEA67A4EED027A97
:1026280007EE902AF8EEE77A67EE877A67EEA67AE1
:102638004EED017AD9D8F9612246C847314ED8ED16
:102648000D6A0020F9692B1D9FED337A9FED336ADF
:10265800DFF8BCC01FE0F4EEC67AF1EE10FAC0F263
:10266800FC833246D1ED017A45F8202066EEA77A40
:10267800F4EEC77AF1EE10FA18D9F4EEC67AF1EE54
:1026880010FAC0F2DA83324643F8202002300831CB
:1026980084427FF667AED1ED007A66EEA77AF4EE53
:1026A800C77AF1EE10FAD6D86246DBE76246EBE766
:1026B80062467DE7324615E7A100D6466208073133
:1026C80021F00701ADEB010DEA46ADEB010D6946BE
:1026D800ADEB0E0D0AEB8200EC46ADEB0E0D01EBF7
:1026E8008202F861E946CCE900A0C9E9001290E647
:1026F800A80701240280FFFF000000300082FF7F4E
:102708000000003482FF7F008C070124007E0080D7
:102718007E0080FF0000003804FF7FBF04FF7F3F7A
:1027280000FEFF46002C00F0C982BBF1020FD8F86A
:10273800242000F0FA827969C7F8049002EB810E30
:102748005FED0C5A8A00DCF808100EF104007A617B
:102758001A46DCF80C303B61331DD7F810903D6108
:10276800FD69C7E902CB8C46834636F92210D8EDBD
:102778000C7A06EE101A33F9221006EE901A3EF97A
:102788002210B8EEC66A07EE101AF8EEE66A3BF9B0
:102798002210B8EEC77A26EE256A66EEA56A27EEFD
:1027A800257A26EE276A66EEA76A27EE277A07EECD
:1027B800901A51080232F8EEE77A0AEB8100944247
:1027C80080ED006A05EB810067EEA57AC0ED006A2E
:1027D8000CEB810009EB810180ED007A98ED0C7A11
:1027E80067EE877AC1ED007ABFD8D7F804903D69C3
:1027F800D7E902CB60466208BB6949469847D8F8D2
:102808002C307A69D8ED0D6A1A441FED3D7A1FED18
:102818003D6A2B1D904602F1040A5FED3F5A0022E3
:10282800A84ED9E900EC51E0F4EEC67AF1EE10FAC0
:10283800C0F2C78247F6FE7045F822000CEB010093
:10284800D0ED007A66EEA77AF4EEC77AF1EE10FAC8
:102858004BD9F4EEC67AF1EE10FAC0F2BA8247F616
:10286800FE70BBF1020F43F822002BD0D9F8080004
:102878000844D0ED007A66EEA77AF4EEC77AF1EE56
:1028880010FA36D9F4EEC67AF1EE10FAC0F2CD821B
:1028980047F6FE7048F82200D9F80C000144D1ED43
:1028A800007A66EEA77AF4EEC77AF1EE10FA1ED92E
:1028B800F4EEC67AF1EE10FAC0F2AF8247F6FE7176
:1028C8004AF82210023294427FF6B1AD51080EEB5D
:1028D80081008900D0ED007A66EEA77AF4EEC77A17
:1028E800F1EE10FAA0D83046A6E73046B9E73146EF
:1028F800E6E73046CEE7002C00F0E081BBF1020F9E
:10290800D8F8243000F0E1817A69DCF8081003EB8C
:10291800820EC7F804909300DFED6B5A0EF10400A5
:1029280000227B61DCF80C303B61331DD7F8109036
:102938003D61FD69C7E902CB8C46834656F82210F3
:10294800D8ED0C7A07EE101A53F82210B8EEC76AC1
:1029580007EE101A5EF82210F8EEC76A07EE101A92
:1029680026EE256A5BF82210B8EEC77A66EEA56AED
:1029780026EE276A27EE257A66EEA76A27EE277ADB
:1029880007EE901A51080232F8EEE77A0AEB810056
:10299800944280ED006A05EB810067EEA57AC0EDF0
:1029A800006A0CEB810009EB810180ED007A98ED5B
:1029B8000C7A67EE877AC1ED007ABFD8D7F8049011
:1029C8003D69D7E902CB60466208BB69494698472A
:1029D800D8F82C307A69D8ED0D6A1A449FED3E7A02
:1029E8009FED3E6A131D9246DFF8E4C00022FB61AA
:1029F8002B1D364ED9E9008E4EE0F4EEC67AF1EE84
:102A080010FAC0F2FC81304645F822000EEB0100B6
:102A1800D0ED007A66EEA77AF4EEC77AF1EE10FAF6
:102A280049D9F4EEC67AF1EE10FAC0F2EF813046D9
:102A3800BBF1020F43F822002AD0D9F80800084455
:102A4800D0ED007A66EEA77AF4EEC77AF1EE10FAC6
:102A580035D9F4EEC67AF1EE10FAC0F2C9813046E3
:102A68004AF82200D9F80C000144D1ED007A66EE4C
:102A7800A77AF4EEC77AF1EE10FA1ED9F4EEC67A08
:102A8800F1EE10FAC0F2AD813146F86940F8221033
:102A9800023294427FF6CBAC510808EB81008900E2
:102AA800D0ED007A66EEA77AF4EEC77AF1EE10FA66
:102AB800A3D86046A8E76046BAE76146E5E76046FE
:102AC800CEE700BF0280FFFF000000300082FF7FDA
:102AD800007E00800000003404FF7FBF04FF7F3FBA
:102AE800002C00F0EB807A690021D8F82430C7F870
:102AF800109003EB820ED7F81C909300FD610EF145
:102B080004021FED0C6A7B61331D154656F821201F
:102B18004808D8ED0C6ABBF1020F82F40002A2F556
:102B2800000207EE902A53F8212082F40002B8EE42
:102B3800E77AA2F5000227EE067A07EE902A0AEB5A
:102B48008002F8EEE77A27EE267A67EE867A82ED3B
:102B5800007A09EB80024FEA800067EEA67AC2EDA0
:102B6800007A27D05EF8212082F40002A2F5000244
:102B780007EE902A55F8212082F40002B8EEE77A91
:102B8800A2F5000227EE067A07EE902ADCF8082064
:102B9800F8EEE77A024427EE267A67EE867A82ED27
:102BA800007A98ED0C7ADCF80C2067EE877A0244FC
:102BB800C2ED007A02318C42A8D8D7F8109060464E
:102BC8006208BB694946FD699847D8F82C307A698C
:102BD800D8ED0D6A1A441FED407A1FED406A131DA7
:102BE8009246DFF8C4C20022FB612B1DAB4ED9E927
:102BF800008E4EE0F4EEC67AF1EE10FAC0F2C5800F
:102C0800304645F822000EEB0100D0ED007A66EE62
:102C1800A77AF4EEC77AF1EE10FA49D9F4EEC67A3B
:102C2800F1EE10FAC0F2BF803046BBF1020F43F854
:102C380022002AD0D9F808000844D0ED007A66EEC0
:102C4800A77AF4EEC77AF1EE10FA35D9F4EEC67A1F
:102C5800F1EE10FAC0F2AE8030464AF82200D9F8F8
:102C68000C000144D1ED007A66EEA77AF4EEC77A3B
:102C7800F1EE10FA1ED9F4EEC67AF1EE10FAC0F2AF
:102C88008B803146F86940F82210023294427FF670
:102C9800CEAB510808EB81008900D0ED007A66EED2
:102CA800A77AF4EEC77AF1EE10FAA3D86046A8E73F
:102CB8006046BAE76146E5E76046CEE72246494600
:102CC8006046BB699847FFF7B2BBC7F810B000224F
:102CD80098ED0C6A331DDFED726AD7F81CB078697D
:102CE80056F8221007EE901A53F82210B8EEE77A39
:102CF80007EE901A51080232F8EEE77A27EE267AA4
:102D08000AEB810E94420BEB810167EEA67A27EE5F
:102D1800067A67EE867A8EED007AC1ED007ADFD802
:102D28008300D7F810B07B614DE61A46C7F810B09B
:102D380098ED0C6A331DDFED5B6AD7F81CB0786933
:102D480036F9221007EE101A33F9221007EE901AFE
:102D5800B8EEC77A51080232F8EEE77A27EE267AFB
:102D68000AEB810E94420BEB810167EEA67A27EEFF
:102D7800067A67EE867A8EED007AC1ED007ADFD8A2
:102D88008300D7F810B07B6134E5F0EE675AFEEEA9
:102D9800E45A15EE900A34E7F0EE675AFEEEE45A6C
:102DA80015EE901A6EE7F0EE675AFEEEE45A15EE4D
:102DB800900A3AE7F0EE675AFEEEE45A15EE900AEA
:102DC8004BE767EEA57AFDEEE77A17EE900A00B2B8
:102DD80032E567EEA57AFDEEE77A17EE900A00B2C3
:102DE8003FE5F0EE675AFEEEE05A15EE901A4CE613
:102DF800F0EE675AFEEEE05A15EE900A30E6F0EE75
:102E0800675AFEEEE05A15EE900AFDE5F0EE675AB5
:102E1800FEEEE05A15EE900A0AE667EEA57AFDEE98
:102E2800E77A17EE901A09B24AE567EEA57AFDEE41
:102E3800E77A17EE900A00B22CE5F0EE675AFEEE3C
:102E4800E45A15EE902A1FE467EEA57AFDEEE77ABC
:102E580017EE902A12B2FFF731BBF0EE675AFEEE7A
:102E6800E45A15EE902AFFF7FDBBF0EE675AFEEE26
:102E7800E05A15EE902AFFF79BBBF0EE675AFEEE7C
:102E8800E05A15EE902AFFF780BB67EEA57AFDEEB3
:102E9800E77A17EE902A12B2FFF724BB82FF7F0071
:102EA80000000030000000387E0080FF30B5184C6C
:102EB800154685B0046004F1080EEC460FC98EE88B
:102EC8000F00D4ED047AF5EEC07A8CE80F00F1EE2D
:102ED80010FA1ADDB7EE006A94ED057A27EE277A24
:102EE800C6EE276A84ED0D7AC4ED0C6A6DB12046F2
:102EF80040F8185F01F0B0FF064903690020064A50
:102F08002162A262E36005B030BD012005B030BD8A
:102F18008C070124002000300000003000680830D1
:102F2800704700BFB1F5807F03680A4628BF4FF499
:102F38008072B1F5807F9A6094BF002001207047AD
:102F48000068183001F0E8BF70B504688AB0A3695A
:102F5800E160CBB104F11805284601F07DFF8446F5
:102F6800EE46E668BCE80F00AEE80F00BCE80F00CC
:102F7800AEE80F009CE803008EE803006946284687
:102F8800049601F071FEF8B9E069D8B104F11C05A6
:102F9800284601F061FF8446EE46E468BCE80F006D
:102FA800AEE80F00BCE80F00AEE80F009CE8030095
:102FB8008EE8030069462846049401F055FE00385F
:102FC80018BF01200AB070BD01200AB070BD00BF53
:102FD80030B5046883B00D46E3694BB1A36800209F
:102FE800E26A616A9B00009004F11C0001F036FF60
:102FF800A3680748A26A9B00216A009004F11800A0
:1030080001F02CFF0020C4E9005003B030BD00BF20
:10301800F922000810B4074B4FF07E5130240022EB
:10302800032019619C60D8605DF8044B5961C3E9BD
:10303800062270478C070124F6EE007A9FED166A87
:1030480020EE207A0160F7EE006A80ED036A80EDD9
:10305800020A27EE277AC6EE877AF4EEE67AF1EED0
:1030680010FA11DDF0EE667A4FF07E514FF0000C49
:1030780002760022C0ED017AC0F814C001614376DF
:103088008276C0ED070A7047F4EEC67AF1EE10FAC0
:10309800EAD5F0EE467AE7E7000000000268037E12
:1030A800128807EE902AFBEEC87A1BB1B7EE007AB9
:1030B80077EE677AD0ED056A90ED047A77EEE67AD6
:1030C800437E67EE877A0BB1F1EE677A90ED030ADB
:1030D80090ED017A77EEC07AA7EE270A80ED030A11
:1030E800704700BF837E80ED020AABB9D0ED077A46
:1030F80027EE800AF6EE007AB7EE007A20EE270A6D
:10310800C7EE007AF4EEC77AF1EE10FA07DDF0EEBA
:10311800477AC0ED017A7047DFED067AE8E7F5EE09
:10312800C07AF1EE10FAF4D5DFED037AC0ED017A3A
:10313800704700BF6F12033B0000000030B585B038
:1031480004460025ADF80C10ADF80820ADF80430A1
:1031580001F0A8FFBDF80C204FF48073206004F143
:1031680018002283BDF808206383E383A2832571B6
:1031780000F020FD04F11C0000F01CFD9FED060A84
:10318800019904F1080000F097F84FF6FF736562A3
:10319800238405B030BD00BF00000000F8B5044628
:1031A80001F080FF002623682671834205D104F1CF
:1031B8000800BDE8F84000F099B8012794F82050BD
:1031C800206004F11800BD40277100F0CFFD6DB2FA
:1031D800284394F82150BD4084F8200004F11C00D5
:1031E80000F0C4FD94F820306DB2666203F003036A
:1031F8002843022BC0B284F8210009D000F0030054
:103208000228D4D1002BD2D14FF0FF336362CEE72E
:103218008307CCD16762CAE730B585B004469FED15
:10322800110A9DF82050ADF80C100399ADF808204C
:103238002A46ADF804308DED000A0AF0B7FB9DED83
:10324800000A2A46029904F11C000AF0AFFB9DED22
:10325800000A2A46019904F1380005B0BDE830405B
:103268000AF0A4BB00007A4410B52DED028BF0EEF5
:10327800608A0446B0EE418A0AF0BCFB04F11C00E7
:10328800B0EE680A0AF0B6FBB0EE480A04F138005E
:10329800BDEC028BBDE810400AF0ACBB10B504468B
:1032A8000AF0BAFB04F11C000AF0B6FB04F138007E
:1032B800BDE810400AF0B0BB70B5044682B0C1F357
:1032C8000726CDB2ADF8041001F0ECFE4FF4807281
:1032D8004FF001232060A01DA571A280E671A360B4
:1032E80002B0BDE8704000F065BC00BF38B50446C8
:1032F80001F0D8FE002223682271834210D00122F7
:10330800A57AE37A954020602271A01D6DB243B979
:1033180000F02CFD40B22843C0B27F28A0720AD02A
:1033280038BD00F023FDB0FA80F040092843C0B250
:103338007F28A072F4D101F0B5FE07EE900AF8EEEE
:10334800677AC4ED037A38BD00B583B04FF0000E3C
:103358004FF0030C4274ADF80410BDF8043080F847
:1033680010E0A0F802C0038003B05DF804FB00BFC2
:103378002DE9F04FDFF81C8300258DB0C04C037099
:1033880008F140034260074601920E462022294672
:103398004046C4F86831C4F86481CDE90255CDE9E6
:1033A8000455CDE90655CDE90855CDE90A550FF084
:1033B800A7FD2022294604F5A170C4F83151C4F8AC
:1033C8003551C4F83951C4F83D510FF099FD019BAE
:1033D80084F8485284F830317A68002A6AD02B463B
:1033E80004F59871454606F1100A9E46F01856F8FD
:1033F80003B0E2180EF1010ED0F80CC0D0F804901A
:10340800D0F8088044F803B0C2F80CC04FF0000CA4
:10341800C2F80490C2F80880008A25F802CB10820E
:103428001AF8032001F8012F002A70D07A684FF0AB
:1034380001001233724584F84802D7D84FF480222D
:1034480090489DF8043008214FF000084FF000091B
:10345800C4F884310023C4E95B020122C4F8743142
:1034680084F88031C4E95E2194F84812C4E964897B
:10347800A9B3C4F89821002284F8813184F88831EE
:103488003B78C4E96722002B38D0012200200121B3
:10349800013B84F8A421C4E96C01082B30D8DFE88B
:1034A80013F0BD00C200C700CC00D100D600DB007D
:1034B800E100E8009DF804300121C4F87421C4F843
:1034C80084314FF4802384F880216E4AC4E95B2359
:1034D80008230022C4E95E130023C4E964230123FE
:1034E800002284F88131002384F888310323C4F84A
:1034F80098313B78C4E96722002BC6D184F8A431FF
:10350800614802F04BFE034638B1FFBEFEE77A6819
:10351800123372453FF66AAF90E702A95A48029300
:1035280002F09AFF8246002876D1042240F2FF7109
:103538000A90CDE9081294F83021002A00F0F380AF
:103548004FF006080AEBCA034FEACA0904EB430323
:103558005B7C072B07D8DFE803F0595C5653504DC6
:103568004A04072307930FFA8AF6D14406EBC606E6
:1035780004EB490904EB46077500384600F01AFBCE
:1035880099F81030042B00F3AA80022B00F3BD80B9
:1035980000F0B98004EB0A03002283F8202114F814
:1035A8001630002B78D0022B00F08A80012B40F0D7
:1035B800B2807B78012B00F0B080002B334B18BF12
:1035C800002305A93048CDE9053802F013FA002890
:1035D80040F0AC800AF1010A94F830315FFA8AFAB7
:1035E800534540F2A0802A4B53F82A80AAE70623C5
:1035F8000793B8E705230793B5E704230793B2E7D2
:1036080003230793AFE702230793ACE7002307934D
:10361800A9E701230793A6E7FFBEFEE7032240239D
:10362800C4E96A236CE707226023C4E96A2367E7D1
:103638000F228023C4E96A2362E71F22A023C4E97A
:103648006A235DE73F22C023C4E96A2358E77F2243
:10365800E023C4E96A2353E7FF224FF48073C4E9E7
:103668006A234DE740F2FF124FF49073C4E96A23CE
:1036780046E740F2FF324FF4A073C4E96A233FE7FC
:10368800C807012400200240340901240002B025A3
:10369800902F0108004000307B78062B37D0072B8D
:1036A8003DD0022B4AD0032B4AD0002B4CD0012B03
:1036B80048D0042B4AD0052B254B18BF002380E7A0
:1036C8007B78042B25D0052B2BD08BB3012B31D045
:1036D800022B31D0032B1F4B18BF002371E70323A4
:1036E800043504EB0A0B4FF0000925448BF8203110
:1036F800284609F1010900F05DFA9BF820310435EC
:103708004B45F5DC4BE70123EAE70223E8E7124BD8
:1037180057E7124B55E7002353E7114B51E7114B7D
:103728004FE7114B4DE70DB0BDE8F08FFFBEFEE748
:103738000E4B46E70E4B44E70E4B42E70E4B40E775
:103748000E4B3EE70E4B3CE70E4B3AE70E4B38E785
:103758000000B84F002090360800900C1000C010F0
:103768002000F0148000501D000180210004002A70
:103778000008302E001060320040C03A0080F03E51
:1037880000005247000021430000844B38B5094C23
:1037980040F2FF724FF0011104F5B675284602F0A9
:1037A80009FE94F83021D4F864112846BDE8384061
:1037B80002F074BBC8070124034B0F29D3F8640136
:1037C80098BF00EB41007047C8070124214B0268ED
:1037D8009A4200D07047204A00232048D2F8D810D7
:1037E80030B51F4C41F0200183B0C4F8D001092046
:1037F80004F5E875C4E975034FF48060C2F8D81081
:10380800D2F8D8204FF40061C4E9773094F8480220
:1038180002F02002C4F8E4114FF4005198420192DA
:103828002846C4F8E811C4E97C33019B14BF00237F
:103838004FF48073C4F8EC3103F034F808B1FFBEDC
:10384800FEE704F5B673C4F8B851C4F8083203B0FB
:1038580030BD00BF00200240004402584000024032
:10386800C8070124014803F095BB00BF980901244B
:1038780002682DE9F84F4B4B9A4201D0BDE8F88F0A
:10388800494D95F84832002BF8D095F83031002B87
:1038980077D0002405F10C0905F5A17605F5987790
:1038A800A04613E003F0010117F811BCA9F10800C4
:1038B80000F06AFABBF1010F25D895F830310134D0
:1038C80009F112090236A2B293422BD917F8012F37
:1038D800002AF4D0D5F864310021327833F8140086
:1038E800D5F8683103EB041323F812003388013349
:1038F8009BB233805FFA83FA3A789A42D2D88A46E2
:10390800A6F80080D0E7CAF34001A9F1040000F04E
:103918003BFABBF1020FCAF38001CED0484600F053
:1039280033FACAE7002395F8480220490922984249
:10393800C5F8D8314FF48060C5F8D011C5F8D42146
:103948004FF400614FF40052C5F8DC3108BF4FF462
:103958008073C5F8E821C5E9780100221448C5E953
:103968007B32C5F8F42102F09DFF08B1FFBEFEE7E7
:1039780095F83021D5F864110E48BDE8F84F02F0EB
:103988008DBA0A4909224FF48060C5F8D831C5E9D3
:1039980074124FF400614FF40052C5E97730C5E95D
:1039A8007912DAE700200240C807012440000240EB
:1039B8009809012434090124704700BF10B592B05A
:1039C800ADF804100180C9B2149C0B29C460C0E989
:1039D80001233FD090F801C0BCF10F0F3AD8022A5A
:1039E8003FD0032A02D0012A00D000220E92012BD8
:1039F80002D0022B18BF0023022C0F932CD0032CCB
:103A08002AD0012C28D000230A29109327D85C4AF1
:103A180002EB812202610A2914D8DFE801F0A3959C
:103A280087796B5D4F4133250600564BD3F8E0107C
:103A380041F48061C3F8E010D3F8E03003F4806308
:103A48000C930C9B01230DA9104603FA0CF30D935C
:103A580003F0F2FD12B010BD0A291094D7D9002244
:103A6800D8E711220E92C2E7464BD3F8E01041F492
:103A78000071C3F8E010D3F8E03003F400730B933F
:103A88000B9BDFE73F4BD3F8E01041F48071C3F89C
:103A9800E010D3F8E03003F480730A930A9BD1E76F
:103AA800384BD3F8E01041F08001C3F8E010D3F8A8
:103AB800E03003F080030993099BC3E7314BD3F847
:103AC800E01041F04001C3F8E010D3F8E03003F013
:103AD80040030893089BB5E72A4BD3F8E01041F060
:103AE8002001C3F8E010D3F8E03003F02003079377
:103AF800079BA7E7234BD3F8E01041F01001C3F868
:103B0800E010D3F8E03003F010030693069B99E722
:103B18001C4BD3F8E01041F00801C3F8E010D3F8CB
:103B2800E03003F008030593059B8BE7154BD3F8AA
:103B3800E01041F00401C3F8E010D3F8E03003F0DE
:103B480004030493049B7DE70E4BD3F8E01041F087
:103B58000201C3F8E010D3F8E03003F00203039346
:103B6800039B6FE7074BD3F8E01041F00101C3F85E
:103B7800E010D3F8E03003F001030293029B61E701
:103B8800000002580044025808B501214378006932
:103B9800994089B203F058FF003818BF012008BDCA
:103BA80001230A464178006903FA01F189B203F05A
:103BB80051BF00BF8378022B30B504468FB037D091
:103BC800032B33D0012B31D000230A93E378012B48
:103BD8002AD0022B28D000230B93002320460C93D5
:103BE80001F082FD0546204601F086FD2378099004
:103BF800082B13D8DFE803F01F3245586B7E91A4D9
:103C08000500594BD3F8E02042F48072C3F8E02055
:103C1800D3F8E03003F480730893089B09A9284679
:103C280003F00AFD0FB030BD0B93D6E70A93CDE73A
:103C380011230A93CAE74C4B09A92846D3F8E02078
:103C480042F00102C3F8E020D3F8E03003F00103AA
:103C58000093009B03F0F0FC0FB030BD424B09A964
:103C68002846D3F8E02042F00202C3F8E020D3F857
:103C7800E03003F002030193019B03F0DDFC0FB079
:103C880030BD394B09A92846D3F8E02042F0040298
:103C9800C3F8E020D3F8E03003F004030293029B5A
:103CA80003F0CAFC0FB030BD2F4B09A92846D3F842
:103CB800E02042F00802C3F8E020D3F8E03003F037
:103CC80008030393039B03F0B7FC0FB030BD264BEA
:103CD80009A92846D3F8E02042F01002C3F8E020F2
:103CE800D3F8E03003F010030493049B03F0A4FC22
:103CF8000FB030BD1C4B09A92846D3F8E02042F08C
:103D08002002C3F8E020D3F8E03003F02003059345
:103D1800059B03F091FC0FB030BD134B09A9284651
:103D2800D3F8E02042F04002C3F8E020D3F8E030B6
:103D380003F040030693069B03F07EFC0FB030BDF2
:103D4800094B09A92846D3F8E02042F08002C3F8BD
:103D5800E020D3F8E03003F080030793079B03F0DB
:103D68006BFC0FB030BD00BF0044025838B50546A3
:103D780001F0BAFC0446284601F0BEFC0146204684
:103D8800BDE8384003F060BE70B506460D4601F048
:103D9800ABFC0446304601F0AFFC2A1E0146204623
:103DA80018BF0122BDE8704003F054BE0023122260
:103DB80070B586B0CDE9022304930368032B01D8BC
:103DC80004230593061D841D304601F08DFC05462D
:103DD800304601F091FC034601A92846019303F0FF
:103DE8002BFC204601F080FC034620461C4601F0CF
:103DF80083FC01A903462046019303F01DFC06B08D
:103E080070BD00BF634A0368934210B58CB028D0D8
:103E1800614A934258D0614A934200F09480604AC4
:103E2800934201D00CB010BD5E4C5F48D4F8E0302E
:103E380043F00203C4F8E030D4F8E03003F00203A2
:103E48000A930A9BFFF7B2FFD4F8F43043F08003DB
:103E5800C4F8F430D4F8F43003F080030B930B9BD0
:103E6800E0E7504C5148D4F8E03043F00203C4F87E
:103E7800E030D4F8E03003F002030193019BFFF730
:103E880095FFD4F8E83000221F2043F400131146B0
:103E9800C4F8E830D4F8E83003F400130293029B26
:103EA800D4F8D83043F00103C4F8D830D4F8D83067
:103EB80003F001030393039B02F042FB1F200CB0A5
:103EC800BDE8104002F07ABB364C3948D4F8E030EF
:103ED80043F08003C4F8E030D4F8E03003F0800306
:103EE8000493049BD4F8E03043F00203C4F8E030B4
:103EF800D4F8E03003F002030593059BFFF756FF63
:103F0800D4F8E8300022212043F480031146C4F895
:103F1800E830D4F8E83003F480030693069BD4F81D
:103F2800D83043F00103C4F8D830D4F8D83003F0BF
:103F380001030793079B02F003FB21200CB0BDE8A7
:103F4800104002F03BBB1B48FFF730FF154B002227
:103F58004820D3F8E840114644F40004C3F8E84088
:103F6800D3F8E84004F400040894089CD3F8D84037
:103F780044F00104C3F8D840D3F8D83003F0010363
:103F88000993099B02F0DCFA48200CB0BDE8104008
:103F980002F014BB0054004000580040005C004090
:103FA800001C005800440258A00C0124180A0124DF
:103FB800F00A0124C80B01242DE9F0431A4B87B0FD
:103FC80000254FF010099E46EC46184BFF22E046AC
:103FD80067461A700EF118060EF13004CDE9005547
:103FE800CDE90255ADF80090BCE80F00CDE90455C5
:103FF800AEE80F009CE803000095ADF800908EE84D
:104008000300B8E80F000FC69CE803000095ADF860
:10401800009086E803000FCF0FC49CE8030084E8F3
:10402800030007B0BDE8F08308000024140A012447
:1040380010B5EFF3108472B6084B1A78120602D541
:1040480004B962B610BD1B78D82205485BB202FBE2
:104058000300143002F09EFFF2E700BF140A0124A7
:10406800180A0124014804F0B5BD00BFA40A0124C0
:10407800014804F0AFBD00BF7C0B0124014804F0E7
:10408800A9BD00BF540C01242DE9F0430F68D824C2
:104098003F4D85B007FB04F4032F05EB04030360D1
:1040A80040DCCB680E46012B3CD84DD04FF0D808E9
:1040B800B646DFF8FC9008FB0758BEE80F00C44678
:1040C800ACE80F00DEF800300DF1100ECCF800302F
:1040D800D8F808C099E80F000EE90F000EEB870327
:1040E800BCF1010F53F8103CC8F88C3031D0BCF14A
:1040F800020F42D0BCF1000F35D0317C8C34D8236C
:10410800002201202C4403FB07534900C3E926027F
:10411800C3F894102046C3E92822C3E92A2204F0F0
:10412800A3F918B1012005B0BDE8F0830146204687
:1041380004F05CFD0028F5D10146204604F080FD1E
:10414800003818BF0120EEE70B7C103B672BADD978
:10415800E8E701F043F90F4B98420CBF0E4B0F4BA9
:10416800C8F89030C9E701F039F90A4B98420CBFFA
:104178000B4B0C4BC8F89030BFE701F02FF9054BFB
:1041880098420CBF084B094BC8F89030B5E700BF00
:10419800180A0124000E27072D0FB0303211D02045
:1041A8005F4390608A62E030200BA0101A098010EB
:1041B800182F01082DE9F041D0F8008082B00D4693
:1041C80017461E4608F18C04204604F00BFD2028F3
:1041D800FAD1D8F80C3073B96D002046089C3346E4
:1041E8003A46A9B2009404F095F9003818BF0120A6
:1041F80002B0BDE8F081089B32463946204604F0FB
:1042080033FBF2E72DE9F041D0F8008082B00D468B
:1042180017461E4608F18C04204604F0E3FC2028CB
:10422800FAD1D8F80C3073B96D002046089C334693
:104238003A46A9B2009404F041FA003818BF0120A8
:1042480002B0BDE8F081089B32463946204604F0AA
:10425800EFFBF2E7044B10221A7483F8E82083F886
:10426800C02183F898227047180A012430B500232A
:1042780095B04FF48071062204460B93069213936F
:10428800CDE90C13CDE90E33CDE9113301F0A8F8CF
:1042980007282BD004F1100541F2883206A92846D8
:1042A80005F0E0FA28B10123184684F85C3015B00F
:1042B80030BD0222022306A92846CDE90023102298
:1042C8000123CDE9022300224FF48003CDE9042322
:1042D80005224FF0807306926A460F9341F28833A5
:1042E80005F02CFC0028DED115B030BD03230120D9
:1042F80084F85C3015B030BD70B50023A4B04FF021
:1043080080724FF480750446ADF806300D93CDE900
:1043180010320122CDE90E53CDE91223CDE9143331
:10432800002943D0F02300F1100508AEADF806309F
:10433800C02341F2883231462846089305F092FAA4
:1043480028B10123184684F85C3024B070BD41F2CE
:1043580088320DF10601284605F0EEFA03460028DA
:10436800EFD105224FF480711E93284616924FF024
:1043780080721B9321931F9202AA9FED1F7BCDE9A8
:104388001C13CDE922338DED027B9FED1D7B41F29D
:10439800883316A98DED047B9FED1B7B8DED067B85
:1043A80005F0CCFB0028CCD124B070BD00F110057D
:1043B80008AE612341F2883231462846089305F059
:1043C80051FA0028BDD141F288320DF10601284684
:1043D80005F030FB0028B4D1BDF80630204623F0A4
:1043E800780343F04003ADF80630FFF73FFF00289D
:1043F8009ED0A6E7AFF30080000000000100000097
:104408001000000001000000000000000000400053
:104418002DE9F04F00234FF4807501264FF0807886
:1044280004462DED028BABB08DF807301393219322
:10443800299314950E96CDF85C80CDE91533CDE916
:104448001863CDE91A33CDE92253CDE92433CDE9F8
:10445800273306231C9300F0C3FF072808D004F174
:10446800100741F288321CA9384605F0FBF940B123
:104478000123184684F85C302BB0BDEC028BBDE8F4
:10448800F08F4FF0020A4FF0020B4FF0050941F28E
:10449800883308AA1CA93846CDF89480CDF87090C6
:1044A8009FED2D8BCDE908AB4FF0000A4FF4800B40
:1044B8008DED0A8BCDE90CAB05F040FB0028D7D178
:1044C80041F2883238460EA905F0CCF90028CFD140
:1044D800402341F288320DF1070138468DF8073044
:1044E80005F02AFA0028C3D141F288330EA902AA9E
:1044F8003846CDF83890CDF85C809FED197B8DED6E
:10450800048BCDE906AB8DED027B05F017FB034666
:104518000028ADD1CDF870904FF00109CDF8948006
:104528004FF00008219308AA29931CA93846229520
:10453800CDE92333CDE9273341F288338DED0A8B5A
:10454800CDE90CABCDE9088905F0F8FA002893D03D
:10455800304684F85C608FE710000000010000001E
:1045680040000000400000002DE9F043624CA3B079
:104578000D46046000F034FF072800F0A980286881
:1045880023466968AA6807C31E46AB8926F8043B18
:104598003046257B677B05F047F9E0B9574B012D7D
:1045A8004FF00108E061236114BF4FF480134FF40A
:1045B8000003C4E9058893FAA3F3B3FA83F34FF42D
:1045C8008079013BC4F82490C4E90B00304623628B
:1045D80005F0BEF838B10122134684F85C2018466D
:1045E80023B0BDE8F08366230B90139041F2883224
:1045F80006A90693CDE90C90CDE90E00CDE911008E
:10460800304605F02FF90028E5D1992341F2883288
:1046180006A93046069305F025F90028DBD10523C5
:104628001C9019906A4614934FF08073219014A936
:104638001D9341F288339FED2A7BCDE91A90CDE98D
:104648001F008DED007B9FED287B30468DED027BB2
:104658009FED277B8DED047B05F070FA0028BAD119
:1046680029462046FFF748FE0028B4D12046FFF728
:10467800CFFE03460028AED1002FB0D118933046A4
:104688000027002606AA14A9CDF86890CDE91F33A3
:10469800EB2314934FF440631B934FF40053179389
:1046A8004FF440431C93A0231693062319934FF00D
:1046B800805321934FF04073CDE906671D9305F0B1
:1046C800B5FA034600288AD0434684F85C8086E71A
:1046D80001230322184684F85C2023B0BDE8F08348
:1046E80000000000010000001000000001000000B0
:1046F8000000000000004000780D01240050005226
:104708002DE9F04F8FB0414B0024026800AF9A4268
:104718007C63C7E90944C7E90B4403D03C37BD466D
:10472800BDE8F08F3A4B40F609213A48EB46D3F8FA
:10473800D42007F11C0607F1220A4FF0020942F4BF
:1047480080424FF00308C3F8D420D3F8D42002F4F1
:104758008042BA60BA68D3F8E02042F04002C3F859
:10476800E020D3F8E02002F04002FA60FA68D3F8BB
:10477800E02042F02002C3F8E020D3F8E02002F065
:1047880020023A613A69D3F8E02042F01002C3F8F7
:10479800E020D3F8E02002F010027A617A69D3F8B9
:1047A800E02042F00202C3F8E020D3F8E030F861DC
:1047B80003F002033984BB61174B7B60BB697B68DC
:1047C80053F8040F7B6000F08FFF7B68054618687C
:1047D80000F092FF16F8013B786207F124012846A1
:1047E800C7F830807B63C7E90A9402F025FF564575
:1047F800E5D100225C20114601F0A2FE5C2001F008
:10480800DDFE3C37DD46BD46BDE8F08F0050005266
:10481800004402580A0A0909D40D0124114B026800
:104828009A4200D07047104A70B5D2F8D4300F4C75
:1048380023F4804304F11806C2F8D43054F8040F66
:1048480000F052FF0546206800F056FF0146284652
:1048580003F032F8B442F1D15C20BDE8704001F0B9
:10486800BBBE00BF0050005200440258D40D0124C2
:10487800014805F067BA00BF880D0124084B1A1DCE
:10488800981D03F1080110B49C1C9A6603F10A02F2
:10489800C3E91834C3E91B015DF8044B5A67704734
:1048A800780D012438B5036871B9026A00F128054A
:1048B80000F5AC74012A0CBF002140218BBB1D4BB5
:1048C8005722C0F858310DE0426A00F1C00500F5E2
:1048D800E874012A0CBF00214021EBB1164B5A2283
:1048E800C0F8D03100232046C4E901214FF480529A
:1048F8004FF48061636262614FF48042C4E903311E
:104908004FF48073C4E906234FF40033236201F0A7
:10491800C9FF58B1FFBEFEE7084B5822C0F8D03196
:10492800E0E7074B5922C0F85831DBE7C5E92044D6
:10493800A56338BD10000240700002402800024004
:10494800580002402DE9F043821D05468BB0031D37
:1049580005F10A010830CDE9052305F10C02AB6920
:10496800CDE907010992002B3DD0EB69B3FA83F832
:104978004FEA58180123022205AE0AAF4FF0060984
:104988000393CDE9012356F8044B2B7922789342FF
:1049980016D02B68F3B1012B02D1F2B10A2304938C
:1049A800204600F0A9FE03462046009300F09CFE36
:1049B800694602F041FEBE42E5D10BB0BDE8F08386
:1049C800697963789942E4D1B8F1000FF3D02B6884
:1049D800002BE0D1CDF81090E2E76378022B14BFEA
:1049E8000A230823DBE74FF00108C3E7534A0368AB
:1049F800934230B505468BB055D02032934252D001
:104A08004F4A934204D02032934201D00BB030BDBC
:104A18004C4C4D48D4F8E03043F00103C4F8E03082
:104A2800D4F8E03003F001030593059BD4F8E03097
:104A380043F00803C4F8E030D4F8E03003F008038A
:104A48000693069BD4F8E03043F04003C4F8E03006
:104A5800D4F8E03003F040030793079BD4F8F03014
:104A680043F40003C4F8F030D4F8F03003F4000342
:104A78000893089BFFF766FFD4F8D830296843F0FD
:104A880001032F4A3048C4F8D830891AD4F8D830EE
:104A980018BF012103F001030993099B0BB0BDE87E
:104AA8003040FFF7FFBE274C2848D4F8E03043F0E9
:104AB8000103C4F8E030D4F8E03003F001030093B8
:104AC800009BD4F8E03043F01003C4F8E030D4F889
:104AD800E03003F010030193019BD4F8E03043F079
:104AE8004003C4F8E030D4F8E03003F04003029308
:104AF800029BD4F8F03043F48003C4F8F030D4F8C3
:104B0800F03003F480030393039BFFF71BFFD4F8F3
:104B1800D830296843F00103084A0C48C4F8D83053
:104B2800891AD4F8D83018BF012103F0010304937F
:104B3800049B0BB0BDE83040FFF7B4BE04580140F9
:104B4800045C0140004402584C100124F00D01247B
:104B5800014802F01FBA00BF480F0124014802F0C3
:104B680019BA00BFC00F0124014802F013BA00BFF0
:104B7800A4110124014802F00DBA00BF1C1201243F
:104B88001A4A0368934210B40BD02032934208D0DB
:104B9800174A934216D02032934213D05DF8044B43
:104BA8007047144B0022D3F85442C3F85822002C03
:104BB800F4D0D3F84802D3E9931223465DF8044BA6
:104BC800520818470B4B0022D3F8B044C3F8B4245A
:104BD800002CE3D0D3F8AC24D3F8A814D3F8A40459
:104BE800520823465DF8044B184700BF045801409B
:104BF800045C0140F00D0124184A0368934210B484
:104C08000BD02032934208D0154A934217D0203255
:104C1800934214D05DF8044B7047124BD3E99424A7
:104C28005208C3F85822002CF4D0D3E99201234645
:104C380001EB820100EB82005DF8044B1847094B39
:104C4800D3F8AC24D3F8B0445208C3F8B424002CE9
:104C5800E0D0D3F8A814D3F8A404E8E70458014036
:104C6800045C0140F00D01242DE9F04F0C684FF46D
:104C78001776754F87B004FB06F6012C07EB060A7A
:104C8800C0F800A000F3A0800D468E464FF0000843
:104C9800D44669A3D3E9002369A1D1E90001CDE98C
:104CA800022306ABCAF8508203EB8403CDE9040162
:104CB80053F810BC53F8083CCAE992880193BEE83F
:104CC8000F00ACE80F00BEE80F00ACE80F00019B36
:104CD8009EE80300CAF828B0CAF8C0308CE8030080
:104CE8002B69042B0CD8DFE803F0737D8791030050
:104CF8004FF41773554A03FB04739A64C3F8E02012
:104D0800AA692B6A002A43D0002B4FF4177308BFF7
:104D1800022203FB047318BF0322DA6201221A631A
:104D2800EA696B6A002A40D1191E4FF4177318BF3D
:104D3800012103FB0473C3E931126B69022B05D807
:104D4800434A12F80380434A52F823904FF41773EA
:104D580006F128004246494603FB04740023384400
:104D680063646363E365C4F8DC30C4F8CC30C4F82A
:104D7800F430C4E90F33C4E91533C4E93533C4E961
:104D88003B33022307F080F8002849D0FFBEFEE736
:104D9800191E4FF4177318BF012103FB0473C3E9ED
:104DA8000B12EA696B6A002ABED0002B4FF4177306
:104DB80008BF022203FB047318BF0322C3F8C420F0
:104DC8000122C3F8C820B8E7012007B0BDE8F08F7A
:104DD8004FF417734FF4FA5203FB04739A64C3F841
:104DE800E0208DE74FF417734FF47A5203FB0473F6
:104DF8009A64C3F8E02083E74FF417734FF4FA423C
:104E080003FB04739A64C3F8E02079E74FF417733F
:104E18004BF6803203FB04739A64C3F8E0206FE713
:104E280006F1C000022342464946384407F02CF8F0
:104E38000028CAD0FFBEFEE704580140045C0140C8
:104E480024580140245C0140F00D01240077010042
:104E5800D02F0108D42F01080068704770B5046886
:104E680082B015460E46C4F85032C4E99212069A2A
:104E7800C4F85422A269012A26D0626A012A9AB289
:104E880011D0294604F1C000019207F0B9F8236A4D
:104E9800019A012B10D0294604F1280007F0B0F838
:104EA800002002B070BD04F1C000019207F03AF989
:104EB800236A019A012BEED1314604F1280007F04C
:104EC80031F9002002B070BD226A012A9AB211D0CD
:104ED800294604F12800019207F092F8636A019AC2
:104EE800012B10D0294604F1C00007F089F80020F2
:104EF80002B070BD04F12800019207F013F9636A4B
:104F0800019A012BEED1314604F1C00007F00AF9ED
:104F1800002002B070BD00BF03681B69042B05D8D0
:104F2800044A02EB830393ED000A70479FED020ADF
:104F3800704700BFE02F010800803B470368D3F8A3
:104F480058027047704700BF08B500F0DDFCBDE8A7
:104F5800084001F0BDBB00BF064808B503680BB1A7
:104F680002F07CFD044803681BB1BDE8084003F06B
:104F780093BE08BDB8160124B0120124064808B52E
:104F880003680BB102F06AFD044803681BB1BDE871
:104F9800084003F081BE08BDB8160124B0120124F0
:104FA800064808B503680BB102F058FD04480368C9
:104FB8001BB1BDE8084003F06FBE08BDB816012458
:104FC800B0120124364BDA6A520062D59A6A9A6A9C
:104FD8009A6A9B6A180600D500BE314B9B6A9906EF
:104FE80000D500BE2E4B9B6ADA0600D500BE2C4BBE
:104FF8009B6A1B0700D500BE294B9B6A980700D502
:1050080000BE274B9B6AD90700D500BE244B9B6A7C
:105018001A0400D500BE224B9B6A9B0400D500BE33
:105028001F4B9B6AD80400D500BE1D4B9B6A19050F
:1050380000D500BE1A4B9B6A5A0500D500BE184B16
:105048009B6A9B0500D500BE154B9B6AD80500D509
:1050580000BE134B9B6A990100D500BE104B9B6A9A
:10506800DA0100D500BE0E4B9B6A1B0300D500BEBB
:105078000B4B9B6A580300D500BE094B9B6A9903EA
:1050880000D500BE064B9B6ADA0306D400BE00BEFC
:10509800FEE7DB6A9B07FAD5F8E700BEF6E700BF34
:1050A80000ED00E000F03CBC00F040BC0A4B9B68FF
:1050B80003F17843B3F5003F0BD3084B986848B128
:1050C8009868012806D09868022803D09B680320B6
:1050D80070470120704700BF00ED00E000008038F5
:1050E8002DE9F041CEB004464C2200210AA80DF06B
:1050F80007FF2022002102A80DF002FFBC22002198
:105108001EA80DF0FDFE022004F03AFA2368012BD8
:105118004FF0000354D0534A02250193C820D16AA6
:10512800514B21F00101D162D26A02F001020192D1
:105138009A6942F440429A619B6903F4404301939F
:10514800019B494A93699B04FCD5484902240022E3
:1051580001268B6A04274FF0080823F00303234332
:105168008B62052316900AA818934FF48033109683
:10517800179419941597CDF86880CDE91B22212240
:10518800CDE91344CDE90A2304F0E4FE00B1FEE7BB
:105198003F220323294602A8CDE90223002208233F
:1051A800CDE9042340224023CDE9062340234FF4D0
:1051B8008062CDE9082305F0FBF90346B8B1FEE7A4
:1051C800294A04250093F0209169264B41F4404177
:1051D8009161926902F440420092DA6A42F0010257
:1051E800DA62DB6A03F001030093009BA9E720223F
:1051F8004FF4805125934FF440152B9280222D9324
:105208001EA83093269135914FF4807124923492E0
:105218000C223394439140F2271120921022CDF8AA
:1052280084802A971F96CDE92E34CDE93B334FF47D
:105238008033CDE922463193002446930623CDE9F5
:105248003E4527934FF48063094C2C931E94CDE977
:10525800281205F009FC00B1FEE704F0B7F94EB0DA
:10526800BDE8F08100040058004802580044025884
:105278000F130F0370B584B0012401F0D7F94FF470
:1052880080764FF04052194B68460025ADF8004033
:105298000396CDE9012301F0E7F919224FF04043C5
:1052A80068468DF8082001938DF80F40ADF80D6021
:1052B8008DF801408DF80A5001F0D6F902230B222F
:1052C80068468DF80F508DF801304FF062538DF815
:1052D80008200193ADF80D408DF80A4001F0C4F99B
:1052E800042001F0B1F904B070BD00BF0E00010345
:1052F80030B50D46044685B0D1E9000184E80300C5
:1053080000F0D2FAAB79A3B30AF006FBFEF754FE1D
:1053180008F076FF0AF002F82B798BBB6B799BB10A
:10532800BFF34F8FBFF36F8F2A4B0022C3F8502271
:10533800BFF34F8FBFF36F8F5A6942F400325A613F
:10534800BFF34F8FBFF36F8F4FF0FF32002300245E
:1053580000256946204802928DF80C30CDE90045B9
:1053680009F06EFB1C4809F0D3FB08F079FB05B087
:1053780030BD2046FFF7B4FE2046FFF77BFFC3E7AA
:10538800144C0023C4F88430BFF34F8FD4F8801036
:1053980043F6E07EC1F34E3CC1F3C9014FEA4C1C11
:1053A8000CEA0E000B4640EA8372013BC4F8602207
:1053B8005A1CF8D1ACF1200C1CF1200FF0D1BFF32E
:1053C8004F8F636943F480336361BFF34F8FBFF33B
:1053D8006F8FA3E700ED00E0A812012405F018BACA
:1053E8001C4B9B6803F17842B2F5003F25D3B3F517
:1053F800803F20D303F16042B2F5003F1FD303F191
:105408005C42B2F5002F1CD303F17042B2F5902F25
:1054180019D303F14842B2F5803F16D303F1804215
:10542800B2F1806F13D303F1E043B3F5000F2CBF43
:10543800082007207047012070470020704702208D
:1054480070470320704704207047052070470620E6
:10545800704700BF00ED00E003480023034A0449F9
:1054680003600DF02FBA00BFA81201240000002429
:105478004D4F000810B4204C0022204B83B0D4F8C4
:1054880088101F4841F47001C4F8881019681D4C31
:1054980041F0010119601A61196808401A49186039
:1054A8009A61DA611A629A62DA621A635A639A63D3
:1054B800DA631A645A64186820F4802018601A663F
:1054C800D3F8DC2042F06042C3F8DC20D3F8DC30AB
:1054D8000193019B23681940B1F1005F03D20B4B84
:1054E8000122C3F80821044B4FF000629A6003B010
:1054F8005DF8044B704700BF00ED00E0004402581F
:105508007FEDF6EA0010005C0000FFFF008000510C
:1055180000F57171D0F8040407F030BEC1EBC10387
:1055280000EB8303D0F80404D3F8082207F054BE34
:10553800C1EBC10300EB8303D0F804049A6C07F0B5
:1055480089BE00BFD0F8040407F028BFC16810B5B1
:10555800044619B1022900D0FEE70121D4F8040459
:1055680007F006FFD4F80404BDE8104007F0D8BEE1
:1055780010B50446D0F8040407F0FEFE2268D2F8FD
:10558800003E43F00103C2F8003E236A23B1034AF8
:10559800136943F00603136110BD00BF00ED00E07E
:1055A800D0F8040407F0F2BED0F8040407F006BFF0
:1055B800D0F8040407F000BFD0F8040407F000BFD7
:1055C800D0F8040407F0FEBE9446D0F898021A46B4
:1055D80008B5634603F0C4FE032802D8024B185CE2
:1055E80008BD022008BD00BF04300108D0F89802A9
:1055F80008B503F043FF032802D8024B185C08BD26
:10560800022008BD04300108D0F8980208B503F05C
:1056180079FF032802D8024B185C08BD022008BD98
:10562800043001080A06D0F8983206D4C1EBC1014B
:1056380003EB810191F8FE01704701F07F01C1EB96
:10564800C10103EB810191F83E007047D0F8980240
:1056580008B503F06FFE032802D8024B185C08BD9A
:10566800022008BD04300108D0F8980208B503F0FC
:10567800DDFE032802D8024B185C08BD022008BDD5
:1056880004300108D0F8980208B503F0A7FE0328F3
:1056980002D8024B185C08BD022008BD043001087E
:1056A800D0F8C00208F03CB9D0F8C00208F050B9F0
:1056B800D0F8C00208F058B9704700BFD0F8C0024F
:1056C80008F03EB9D0F8C00208F03EB9D0F8D003CF
:1056D80008B502F083FD032802D8024B185C08BD08
:1056E800022008BD08300108024B027853F8220056
:1056F800704700BF2C300108024B427833F8120083
:10570800704700BF0C3001088CB00A2814D8DFE8B5
:1057180000F01523313F4D5B6977859306004D4BAB
:10572800D3F8E02042F48062C3F8E020D3F8E030F8
:1057380003F480630B930B9B0CB07047454BD3F875
:10574800E02042F00102C3F8E020D3F8E03003F093
:1057580001030193019BEFE73E4BD3F8E02042F0B1
:105768000202C3F8E020D3F8E03003F0020302930A
:10577800029BE1E7374BD3F8E02042F00402C3F87C
:10578800E020D3F8E03003F004030393039BD3E74E
:10579800304BD3F8E02042F00802C3F8E020D3F8F9
:1057A800E03003F008030493049BC5E7294BD3F8C2
:1057B800E02042F01002C3F8E020D3F8E03003F014
:1057C80010030593059BB7E7224BD3F8E02042F07E
:1057D8002002C3F8E020D3F8E03003F0200306935A
:1057E800069BA9E71B4BD3F8E02042F04002C3F820
:1057F800E020D3F8E03003F040030793079B9BE7D2
:10580800144BD3F8E02042F08002C3F8E020D3F82C
:10581800E03003F080030893089B8DE70D4BD3F825
:10582800E02042F48072C3F8E020D3F8E03003F4BB
:1058380080730993099B7FE7064BD3F8E02042F475
:105848000072C3F8E020D3F8E03003F400730A9341
:105858000A9B71E700440258704700BF0F4B1B7842
:105868000BB90120704710B504464FF47A700C4A02
:10587800B0FBF3F31068B0FBF3F000F0C1FE0F2C9F
:1058880000D808B1012010BD002221464FF0FF309A
:1058980000F056FE034B00201C6010BD5800002489
:1058A800500000245C00002438B50320124D00F09D
:1058B80035FE124C04F0DCFD114A12499369C3F31A
:1058C8000323CB5C03F01F0320FA03F30E202B60A5
:1058D800926902F00F028A5C02F01F02D340236033
:1058E800FFF7BCFF10B10124204638BD0446FFF77E
:1058F800B3FF204638BD00BF5000002454000024E8
:1059080000440258F42F0108034A044B11681B781D
:105918000B441360704700BF7C1901245800002411
:10592800014B1868704700BF7C19012438B504463C
:10593800FFF7F6FF0546631C02D0044B1B781C4496
:10594800FFF7EEFF431BA342FAD338BD58000024EB
:10595800014B1868000C70470010005C704700BFCE
:10596800806B08B5FFF7FAFF08BD00BF836B5A6D5F
:1059780012F0500F5A6D10B51DD1196842F400721B
:105988005A650A6812F0080FCA681BD012F4406FF3
:105998000DD1CA6894040AD45A6D22F480725A65EB
:1059A8005A6DD10403D45A6D42F001025A65184663
:1059B800FDF75EFF10BDD2060AD4DB6CBDE81040CF
:1059C800DB6C18479007E7D01846FDF751FFF1E761
:1059D8001846FDF7F1FF10BD806B08B5436D43F025
:1059E80040034365836D43F004038365FDF7E4FFDB
:1059F80008BD00BFF0B5002283B0019290F8502096
:105A0800012A00F01C81034601201A6883F850001F
:105A18009468640700F18A800C68C4F31305002DAC
:105A280040F08F80C4F38464A0404D684FF01F0E8F
:105A3800D6694FEA951C30430CF00C0CD06105F088
:105A48001F0002F1300584400EFA00FE5CF80500E4
:105A580020EA0E0004434CF80540906840076ED4D5
:105A6800956815F0080547D10C68072002F114065F
:105A7800B94F4FEAD45CC4F304540CF0040C00FA98
:105A880004FE886800FA04F45CF8060020EA0E00B8
:105A980020434CF80600386800F07040B0F1805F91
:105AA80000F0C580D068D668C70600F1E880C6F364
:105AB80082064869760000FA06F60F69042F00F09E
:105AC800C18002F16004086854F827C000F0F8406B
